{
  "abi": [
    {
      "inputs": [],
      "stateMutability": "nonpayable",
      "type": "constructor"
    },
    {
      "inputs": [],
      "name": "InvalidDataLengthError",
      "type": "error"
    },
    {
      "inputs": [],
      "name": "InvalidInputError",
      "type": "error"
    },
    {
      "inputs": [],
      "name": "InvalidSenderError",
      "type": "error"
    },
    {
      "inputs": [],
      "name": "NotEnoughTransactionsError",
      "type": "error"
    },
    {
      "inputs": [],
      "name": "ProofError",
      "type": "error"
    },
    {
      "anonymous": false,
      "inputs": [
        {
          "indexed": true,
          "internalType": "address",
          "name": "owner",
          "type": "address"
        },
        {
          "indexed": true,
          "internalType": "address",
          "name": "approved",
          "type": "address"
        },
        {
          "indexed": true,
          "internalType": "uint256",
          "name": "tokenId",
          "type": "uint256"
        }
      ],
      "name": "Approval",
      "type": "event"
    },
    {
      "anonymous": false,
      "inputs": [
        {
          "indexed": true,
          "internalType": "address",
          "name": "owner",
          "type": "address"
        },
        {
          "indexed": true,
          "internalType": "address",
          "name": "operator",
          "type": "address"
        },
        {
          "indexed": false,
          "internalType": "bool",
          "name": "approved",
          "type": "bool"
        }
      ],
      "name": "ApprovalForAll",
      "type": "event"
    },
    {
      "anonymous": false,
      "inputs": [
        {
          "indexed": true,
          "internalType": "address",
          "name": "from",
          "type": "address"
        },
        {
          "indexed": true,
          "internalType": "address",
          "name": "to",
          "type": "address"
        },
        {
          "indexed": true,
          "internalType": "uint256",
          "name": "tokenId",
          "type": "uint256"
        }
      ],
      "name": "Transfer",
      "type": "event"
    },
    {
      "inputs": [],
      "name": "AXIOM_V1_QUERY_MAINNET_ADDR",
      "outputs": [
        {
          "internalType": "address",
          "name": "",
          "type": "address"
        }
      ],
      "stateMutability": "view",
      "type": "function"
    },
    {
      "inputs": [],
      "name": "BEAR_END_BLOCK",
      "outputs": [
        {
          "internalType": "uint256",
          "name": "",
          "type": "uint256"
        }
      ],
      "stateMutability": "view",
      "type": "function"
    },
    {
      "inputs": [],
      "name": "BEAR_START_BLOCK",
      "outputs": [
        {
          "internalType": "uint256",
          "name": "",
          "type": "uint256"
        }
      ],
      "stateMutability": "view",
      "type": "function"
    },
    {
      "inputs": [],
      "name": "NUM_TX_THRESHOLD",
      "outputs": [
        {
          "internalType": "uint256",
          "name": "",
          "type": "uint256"
        }
      ],
      "stateMutability": "view",
      "type": "function"
    },
    {
      "inputs": [
        {
          "internalType": "address",
          "name": "to",
          "type": "address"
        },
        {
          "internalType": "uint256",
          "name": "tokenId",
          "type": "uint256"
        }
      ],
      "name": "approve",
      "outputs": [],
      "stateMutability": "nonpayable",
      "type": "function"
    },
    {
      "inputs": [
        {
          "internalType": "address",
          "name": "owner",
          "type": "address"
        }
      ],
      "name": "balanceOf",
      "outputs": [
        {
          "internalType": "uint256",
          "name": "",
          "type": "uint256"
        }
      ],
      "stateMutability": "view",
      "type": "function"
    },
    {
      "inputs": [
        {
          "internalType": "uint256",
          "name": "tokenId",
          "type": "uint256"
        }
      ],
      "name": "getApproved",
      "outputs": [
        {
          "internalType": "address",
          "name": "",
          "type": "address"
        }
      ],
      "stateMutability": "view",
      "type": "function"
    },
    {
      "inputs": [
        {
          "internalType": "address",
          "name": "owner",
          "type": "address"
        },
        {
          "internalType": "address",
          "name": "operator",
          "type": "address"
        }
      ],
      "name": "isApprovedForAll",
      "outputs": [
        {
          "internalType": "bool",
          "name": "",
          "type": "bool"
        }
      ],
      "stateMutability": "view",
      "type": "function"
    },
    {
      "inputs": [
        {
          "components": [
            {
              "internalType": "bytes32",
              "name": "keccakBlockResponse",
              "type": "bytes32"
            },
            {
              "internalType": "bytes32",
              "name": "keccakAccountResponse",
              "type": "bytes32"
            },
            {
              "internalType": "bytes32",
              "name": "keccakStorageResponse",
              "type": "bytes32"
            },
            {
              "components": [
                {
                  "internalType": "uint32",
                  "name": "blockNumber",
                  "type": "uint32"
                },
                {
                  "internalType": "bytes32",
                  "name": "blockHash",
                  "type": "bytes32"
                },
                {
                  "internalType": "uint32",
                  "name": "leafIdx",
                  "type": "uint32"
                },
                {
                  "internalType": "bytes32[6]",
                  "name": "proof",
                  "type": "bytes32[6]"
                }
              ],
              "internalType": "struct IAxiomV1Query.BlockResponse[]",
              "name": "blockResponses",
              "type": "tuple[]"
            },
            {
              "components": [
                {
                  "internalType": "uint32",
                  "name": "blockNumber",
                  "type": "uint32"
                },
                {
                  "internalType": "address",
                  "name": "addr",
                  "type": "address"
                },
                {
                  "internalType": "uint64",
                  "name": "nonce",
                  "type": "uint64"
                },
                {
                  "internalType": "uint96",
                  "name": "balance",
                  "type": "uint96"
                },
                {
                  "internalType": "bytes32",
                  "name": "storageRoot",
                  "type": "bytes32"
                },
                {
                  "internalType": "bytes32",
                  "name": "codeHash",
                  "type": "bytes32"
                },
                {
                  "internalType": "uint32",
                  "name": "leafIdx",
                  "type": "uint32"
                },
                {
                  "internalType": "bytes32[6]",
                  "name": "proof",
                  "type": "bytes32[6]"
                }
              ],
              "internalType": "struct IAxiomV1Query.AccountResponse[]",
              "name": "accountResponses",
              "type": "tuple[]"
            },
            {
              "components": [
                {
                  "internalType": "uint32",
                  "name": "blockNumber",
                  "type": "uint32"
                },
                {
                  "internalType": "address",
                  "name": "addr",
                  "type": "address"
                },
                {
                  "internalType": "uint256",
                  "name": "slot",
                  "type": "uint256"
                },
                {
                  "internalType": "uint256",
                  "name": "value",
                  "type": "uint256"
                },
                {
                  "internalType": "uint32",
                  "name": "leafIdx",
                  "type": "uint32"
                },
                {
                  "internalType": "bytes32[6]",
                  "name": "proof",
                  "type": "bytes32[6]"
                }
              ],
              "internalType": "struct IAxiomV1Query.StorageResponse[]",
              "name": "storageResponses",
              "type": "tuple[]"
            }
          ],
          "internalType": "struct ResponseStruct",
          "name": "response",
          "type": "tuple"
        }
      ],
      "name": "mint",
      "outputs": [],
      "stateMutability": "nonpayable",
      "type": "function"
    },
    {
      "inputs": [],
      "name": "name",
      "outputs": [
        {
          "internalType": "string",
          "name": "",
          "type": "string"
        }
      ],
      "stateMutability": "view",
      "type": "function"
    },
    {
      "inputs": [
        {
          "internalType": "uint256",
          "name": "tokenId",
          "type": "uint256"
        }
      ],
      "name": "ownerOf",
      "outputs": [
        {
          "internalType": "address",
          "name": "",
          "type": "address"
        }
      ],
      "stateMutability": "view",
      "type": "function"
    },
    {
      "inputs": [
        {
          "internalType": "address",
          "name": "from",
          "type": "address"
        },
        {
          "internalType": "address",
          "name": "to",
          "type": "address"
        },
        {
          "internalType": "uint256",
          "name": "tokenId",
          "type": "uint256"
        }
      ],
      "name": "safeTransferFrom",
      "outputs": [],
      "stateMutability": "nonpayable",
      "type": "function"
    },
    {
      "inputs": [
        {
          "internalType": "address",
          "name": "from",
          "type": "address"
        },
        {
          "internalType": "address",
          "name": "to",
          "type": "address"
        },
        {
          "internalType": "uint256",
          "name": "tokenId",
          "type": "uint256"
        },
        {
          "internalType": "bytes",
          "name": "data",
          "type": "bytes"
        }
      ],
      "name": "safeTransferFrom",
      "outputs": [],
      "stateMutability": "nonpayable",
      "type": "function"
    },
    {
      "inputs": [
        {
          "internalType": "address",
          "name": "operator",
          "type": "address"
        },
        {
          "internalType": "bool",
          "name": "approved",
          "type": "bool"
        }
      ],
      "name": "setApprovalForAll",
      "outputs": [],
      "stateMutability": "nonpayable",
      "type": "function"
    },
    {
      "inputs": [
        {
          "internalType": "bytes4",
          "name": "interfaceId",
          "type": "bytes4"
        }
      ],
      "name": "supportsInterface",
      "outputs": [
        {
          "internalType": "bool",
          "name": "",
          "type": "bool"
        }
      ],
      "stateMutability": "view",
      "type": "function"
    },
    {
      "inputs": [],
      "name": "symbol",
      "outputs": [
        {
          "internalType": "string",
          "name": "",
          "type": "string"
        }
      ],
      "stateMutability": "view",
      "type": "function"
    },
    {
      "inputs": [
        {
          "internalType": "uint256",
          "name": "index",
          "type": "uint256"
        }
      ],
      "name": "tokenByIndex",
      "outputs": [
        {
          "internalType": "uint256",
          "name": "",
          "type": "uint256"
        }
      ],
      "stateMutability": "view",
      "type": "function"
    },
    {
      "inputs": [
        {
          "internalType": "address",
          "name": "owner",
          "type": "address"
        },
        {
          "internalType": "uint256",
          "name": "index",
          "type": "uint256"
        }
      ],
      "name": "tokenOfOwnerByIndex",
      "outputs": [
        {
          "internalType": "uint256",
          "name": "",
          "type": "uint256"
        }
      ],
      "stateMutability": "view",
      "type": "function"
    },
    {
      "inputs": [
        {
          "internalType": "uint256",
          "name": "tokenId",
          "type": "uint256"
        }
      ],
      "name": "tokenURI",
      "outputs": [
        {
          "internalType": "string",
          "name": "",
          "type": "string"
        }
      ],
      "stateMutability": "view",
      "type": "function"
    },
    {
      "inputs": [],
      "name": "totalSupply",
      "outputs": [
        {
          "internalType": "uint256",
          "name": "",
          "type": "uint256"
        }
      ],
      "stateMutability": "view",
      "type": "function"
    },
    {
      "inputs": [
        {
          "internalType": "address",
          "name": "from",
          "type": "address"
        },
        {
          "internalType": "address",
          "name": "to",
          "type": "address"
        },
        {
          "internalType": "uint256",
          "name": "tokenId",
          "type": "uint256"
        }
      ],
      "name": "transferFrom",
      "outputs": [],
      "stateMutability": "nonpayable",
      "type": "function"
    }
  ],
  "bytecode": {
    "object": "0x60806040523480156200001157600080fd5b506040518060400160405280600a8152602001692132b0b93634b2bb32b960b11b8152506040518060400160405280600381526020016221262b60e91b81525081600090816200006291906200011f565b5060016200007182826200011f565b505050620001eb565b634e487b7160e01b600052604160045260246000fd5b600181811c90821680620000a557607f821691505b602082108103620000c657634e487b7160e01b600052602260045260246000fd5b50919050565b601f8211156200011a57600081815260208120601f850160051c81016020861015620000f55750805b601f850160051c820191505b81811015620001165782815560010162000101565b5050505b505050565b81516001600160401b038111156200013b576200013b6200007a565b62000153816200014c845462000090565b84620000cc565b602080601f8311600181146200018b5760008415620001725750858301515b600019600386901b1c1916600185901b17855562000116565b600085815260208120601f198616915b82811015620001bc578886015182559484019460019091019084016200019b565b5085821015620001db5787850151600019600388901b60f8161c191681555b5050505050600190811b01905550565b611f6080620001fb6000396000f3fe608060405234801561001057600080fd5b50600436106101375760003560e01c80634f6ccce7116100b8578063a22cb4651161007c578063a22cb46514610270578063b88d4fde14610283578063c87b56dd14610296578063db7c05c1146102a9578063e985e9c5146102c4578063f7abd2a01461030057600080fd5b80634f6ccce7146102255780636352211e1461023857806370a082311461024b5780639025464d1461025e57806395d89b411461026857600080fd5b806318160ddd116100ff57806318160ddd146101d15780631ee21986146101d957806323b872dd146101ec5780632f745c59146101ff57806342842e0e1461021257600080fd5b806301ffc9a71461013c57806306fdde0314610164578063081812fc14610179578063095ea7b3146101a45780630effa0f7146101b9575b600080fd5b61014f61014a3660046116b2565b610308565b60405190151581526020015b60405180910390f35b61016c610333565b60405161015b919061171f565b61018c610187366004611732565b6103c5565b6040516001600160a01b03909116815260200161015b565b6101b76101b2366004611767565b6103ec565b005b6101c3625d624081565b60405190815260200161015b565b6008546101c3565b6101b76101e7366004611791565b610506565b6101b76101fa3660046117cc565b610524565b6101c361020d366004611767565b610555565b6101b76102203660046117cc565b6105eb565b6101c3610233366004611732565b610606565b61018c610246366004611732565b610699565b6101c3610259366004611808565b6106f9565b6101c3629f263081565b61016c61077f565b6101b761027e366004611831565b61078e565b6101b761029136600461187e565b61079d565b61016c6102a4366004611732565b6107d5565b61018c73d617ab7f787adf64c2b5b920c251ea10cd35a95281565b61014f6102d236600461195a565b6001600160a01b03918216600090815260056020908152604080832093909416825291909152205460ff1690565b6101c3601081565b60006001600160e01b0319821663780e9d6360e01b148061032d575061032d82610849565b92915050565b6060600080546103429061198d565b80601f016020809104026020016040519081016040528092919081815260200182805461036e9061198d565b80156103bb5780601f10610390576101008083540402835291602001916103bb565b820191906000526020600020905b81548152906001019060200180831161039e57829003601f168201915b5050505050905090565b60006103d082610899565b506000908152600460205260409020546001600160a01b031690565b60006103f782610699565b9050806001600160a01b0316836001600160a01b0316036104695760405162461bcd60e51b815260206004820152602160248201527f4552433732313a20617070726f76616c20746f2063757272656e74206f776e656044820152603960f91b60648201526084015b60405180910390fd5b336001600160a01b0382161480610485575061048581336102d2565b6104f75760405162461bcd60e51b815260206004820152603d60248201527f4552433732313a20617070726f76652063616c6c6572206973206e6f7420746f60448201527f6b656e206f776e6572206f7220617070726f76656420666f7220616c6c0000006064820152608401610460565b61050183836108f8565b505050565b61050f81610966565b6105213361051c60085490565b610c95565b50565b61052e3382610caf565b61054a5760405162461bcd60e51b8152600401610460906119c7565b610501838383610d2e565b6000610560836106f9565b82106105c25760405162461bcd60e51b815260206004820152602b60248201527f455243373231456e756d657261626c653a206f776e657220696e646578206f7560448201526a74206f6620626f756e647360a81b6064820152608401610460565b506001600160a01b03919091166000908152600660209081526040808320938352929052205490565b6105018383836040518060200160405280600081525061079d565b600061061160085490565b82106106745760405162461bcd60e51b815260206004820152602c60248201527f455243373231456e756d657261626c653a20676c6f62616c20696e646578206f60448201526b7574206f6620626f756e647360a01b6064820152608401610460565b6008828154811061068757610687611a14565b90600052602060002001549050919050565b6000818152600260205260408120546001600160a01b03168061032d5760405162461bcd60e51b8152602060048201526018602482015277115490cdcc8c4e881a5b9d985b1a59081d1bdad95b88125160421b6044820152606401610460565b60006001600160a01b0382166107635760405162461bcd60e51b815260206004820152602960248201527f4552433732313a2061646472657373207a65726f206973206e6f7420612076616044820152683634b21037bbb732b960b91b6064820152608401610460565b506001600160a01b031660009081526003602052604090205490565b6060600180546103429061198d565b610799338383610e9f565b5050565b6107a73383610caf565b6107c35760405162461bcd60e51b8152600401610460906119c7565b6107cf84848484610f6d565b50505050565b60606107e082610899565b60006107f760408051602081019091526000815290565b905060008151116108175760405180602001604052806000815250610842565b8061082184610fa0565b604051602001610832929190611a2a565b6040516020818303038152906040525b9392505050565b60006001600160e01b031982166380ac58cd60e01b148061087a57506001600160e01b03198216635b5e139f60e01b145b8061032d57506301ffc9a760e01b6001600160e01b031983161461032d565b6000818152600260205260409020546001600160a01b03166105215760405162461bcd60e51b8152602060048201526018602482015277115490cdcc8c4e881a5b9d985b1a59081d1bdad95b88125160421b6044820152606401610460565b600081815260046020526040902080546001600160a01b0319166001600160a01b038416908117909155819061092d82610699565b6001600160a01b03167f8c5be1e5ebec7d5bd14f71427d1e84f3dd0314c0f7b2291e5b200ac8c7c3b92560405160405180910390a45050565b73d617ab7f787adf64c2b5b920c251ea10cd35a952600081636439e9d484356020860135604087013561099c6060890189611a59565b6109a960808b018b611aaa565b6109b660a08d018d611af4565b6040518a63ffffffff1660e01b81526004016109da99989796959493929190611cf2565b602060405180830381865afa1580156109f7573d6000803e3d6000fd5b505050506040513d601f19601f82011682018060405250810190610a1b9190611daf565b905080610a3b57604051636728b69360e11b815260040160405180910390fd5b6000610a4a6080850185611aaa565b91505060028114610a6e57604051633cbac2d960e11b815260040160405180910390fd5b6000610a7d6080860186611aaa565b6000818110610a8e57610a8e611a14565b610aa59260206101a0909202019081019150611dcc565b63ffffffff1690506000610abc6080870187611aaa565b6000818110610acd57610acd611a14565b90506101a002016040016020810190610ae69190611de7565b67ffffffffffffffff1690506000610b016080880188611aaa565b6000818110610b1257610b12611a14565b90506101a002016020016020810190610b2b9190611808565b90506000610b3c6080890189611aaa565b6001818110610b4d57610b4d611a14565b610b649260206101a0909202019081019150611dcc565b63ffffffff1690506000610b7b60808a018a611aaa565b6001818110610b8c57610b8c611a14565b90506101a002016040016020810190610ba59190611de7565b67ffffffffffffffff1690506000610bc060808b018b611aaa565b6001818110610bd157610bd1611a14565b90506101a002016020016020810190610bea9190611808565b9050625d624086141580610c015750629f26308314155b15610c1f576040516319e9109760e11b815260040160405180910390fd5b6010610c2b8684611e02565b1015610c4a5760405163567dea9560e11b815260040160405180910390fd5b6001600160a01b03841633141580610c6b57506001600160a01b0381163314155b15610c8957604051635e9644c160e11b815260040160405180910390fd5b50505050505050505050565b610799828260405180602001604052806000815250611033565b600080610cbb83610699565b9050806001600160a01b0316846001600160a01b03161480610d0257506001600160a01b0380821660009081526005602090815260408083209388168352929052205460ff165b80610d265750836001600160a01b0316610d1b846103c5565b6001600160a01b0316145b949350505050565b826001600160a01b0316610d4182610699565b6001600160a01b031614610d675760405162461bcd60e51b815260040161046090611e23565b6001600160a01b038216610dc95760405162461bcd60e51b8152602060048201526024808201527f4552433732313a207472616e7366657220746f20746865207a65726f206164646044820152637265737360e01b6064820152608401610460565b610dd68383836001611066565b826001600160a01b0316610de982610699565b6001600160a01b031614610e0f5760405162461bcd60e51b815260040161046090611e23565b600081815260046020908152604080832080546001600160a01b03199081169091556001600160a01b0387811680865260038552838620805460001901905590871680865283862080546001019055868652600290945282852080549092168417909155905184937fddf252ad1be2c89b69c2b068fc378daa952ba7f163c4a11628f55a4df523b3ef91a4505050565b816001600160a01b0316836001600160a01b031603610f005760405162461bcd60e51b815260206004820152601960248201527f4552433732313a20617070726f766520746f2063616c6c6572000000000000006044820152606401610460565b6001600160a01b03838116600081815260056020908152604080832094871680845294825291829020805460ff191686151590811790915591519182527f17307eab39ab6107e8899845ad3d59bd9653f200f220920489ca2b5937696c31910160405180910390a3505050565b610f78848484610d2e565b610f848484848461119a565b6107cf5760405162461bcd60e51b815260040161046090611e68565b60606000610fad8361129b565b600101905060008167ffffffffffffffff811115610fcd57610fcd611868565b6040519080825280601f01601f191660200182016040528015610ff7576020820181803683370190505b5090508181016020015b600019016f181899199a1a9b1b9c1cb0b131b232b360811b600a86061a8153600a850494508461100157509392505050565b61103d8383611373565b61104a600084848461119a565b6105015760405162461bcd60e51b815260040161046090611e68565b60018111156110d55760405162461bcd60e51b815260206004820152603560248201527f455243373231456e756d657261626c653a20636f6e7365637574697665207472604482015274185b9cd9995c9cc81b9bdd081cdd5c1c1bdc9d1959605a1b6064820152608401610460565b816001600160a01b0385166111315761112c81600880546000838152600960205260408120829055600182018355919091527ff3f7a9fe364faab93b216da50a3214154f22a0a2b415b23a84c8169e8b636ee30155565b611154565b836001600160a01b0316856001600160a01b03161461115457611154858261150c565b6001600160a01b0384166111705761116b816115a9565b611193565b846001600160a01b0316846001600160a01b031614611193576111938482611658565b5050505050565b60006001600160a01b0384163b1561129057604051630a85bd0160e11b81526001600160a01b0385169063150b7a02906111de903390899088908890600401611eba565b6020604051808303816000875af1925050508015611219575060408051601f3d908101601f1916820190925261121691810190611ef7565b60015b611276573d808015611247576040519150601f19603f3d011682016040523d82523d6000602084013e61124c565b606091505b50805160000361126e5760405162461bcd60e51b815260040161046090611e68565b805181602001fd5b6001600160e01b031916630a85bd0160e11b149050610d26565b506001949350505050565b60008072184f03e93ff9f4daa797ed6e38ed64bf6a1f0160401b83106112da5772184f03e93ff9f4daa797ed6e38ed64bf6a1f0160401b830492506040015b6d04ee2d6d415b85acef81000000008310611306576d04ee2d6d415b85acef8100000000830492506020015b662386f26fc10000831061132457662386f26fc10000830492506010015b6305f5e100831061133c576305f5e100830492506008015b612710831061135057612710830492506004015b60648310611362576064830492506002015b600a831061032d5760010192915050565b6001600160a01b0382166113c95760405162461bcd60e51b815260206004820181905260248201527f4552433732313a206d696e7420746f20746865207a65726f20616464726573736044820152606401610460565b6000818152600260205260409020546001600160a01b03161561142e5760405162461bcd60e51b815260206004820152601c60248201527f4552433732313a20746f6b656e20616c7265616479206d696e746564000000006044820152606401610460565b61143c600083836001611066565b6000818152600260205260409020546001600160a01b0316156114a15760405162461bcd60e51b815260206004820152601c60248201527f4552433732313a20746f6b656e20616c7265616479206d696e746564000000006044820152606401610460565b6001600160a01b038216600081815260036020908152604080832080546001019055848352600290915280822080546001600160a01b0319168417905551839291907fddf252ad1be2c89b69c2b068fc378daa952ba7f163c4a11628f55a4df523b3ef908290a45050565b60006001611519846106f9565b6115239190611e02565b600083815260076020526040902054909150808214611576576001600160a01b03841660009081526006602090815260408083208584528252808320548484528184208190558352600790915290208190555b5060009182526007602090815260408084208490556001600160a01b039094168352600681528383209183525290812055565b6008546000906115bb90600190611e02565b600083815260096020526040812054600880549394509092849081106115e3576115e3611a14565b90600052602060002001549050806008838154811061160457611604611a14565b600091825260208083209091019290925582815260099091526040808220849055858252812055600880548061163c5761163c611f14565b6001900381819060005260206000200160009055905550505050565b6000611663836106f9565b6001600160a01b039093166000908152600660209081526040808320868452825280832085905593825260079052919091209190915550565b6001600160e01b03198116811461052157600080fd5b6000602082840312156116c457600080fd5b81356108428161169c565b60005b838110156116ea5781810151838201526020016116d2565b50506000910152565b6000815180845261170b8160208601602086016116cf565b601f01601f19169290920160200192915050565b60208152600061084260208301846116f3565b60006020828403121561174457600080fd5b5035919050565b80356001600160a01b038116811461176257600080fd5b919050565b6000806040838503121561177a57600080fd5b6117838361174b565b946020939093013593505050565b6000602082840312156117a357600080fd5b813567ffffffffffffffff8111156117ba57600080fd5b820160c0818503121561084257600080fd5b6000806000606084860312156117e157600080fd5b6117ea8461174b565b92506117f86020850161174b565b9150604084013590509250925092565b60006020828403121561181a57600080fd5b6108428261174b565b801515811461052157600080fd5b6000806040838503121561184457600080fd5b61184d8361174b565b9150602083013561185d81611823565b809150509250929050565b634e487b7160e01b600052604160045260246000fd5b6000806000806080858703121561189457600080fd5b61189d8561174b565b93506118ab6020860161174b565b925060408501359150606085013567ffffffffffffffff808211156118cf57600080fd5b818701915087601f8301126118e357600080fd5b8135818111156118f5576118f5611868565b604051601f8201601f19908116603f0116810190838211818310171561191d5761191d611868565b816040528281528a602084870101111561193657600080fd5b82602086016020830137600060208483010152809550505050505092959194509250565b6000806040838503121561196d57600080fd5b6119768361174b565b91506119846020840161174b565b90509250929050565b600181811c908216806119a157607f821691505b6020821081036119c157634e487b7160e01b600052602260045260246000fd5b50919050565b6020808252602d908201527f4552433732313a2063616c6c6572206973206e6f7420746f6b656e206f776e6560408201526c1c881bdc88185c1c1c9bdd9959609a1b606082015260800190565b634e487b7160e01b600052603260045260246000fd5b60008351611a3c8184602088016116cf565b835190830190611a508183602088016116cf565b01949350505050565b6000808335601e19843603018112611a7057600080fd5b83018035915067ffffffffffffffff821115611a8b57600080fd5b602001915061012081023603821315611aa357600080fd5b9250929050565b6000808335601e19843603018112611ac157600080fd5b83018035915067ffffffffffffffff821115611adc57600080fd5b60200191506101a081023603821315611aa357600080fd5b6000808335601e19843603018112611b0b57600080fd5b83018035915067ffffffffffffffff821115611b2657600080fd5b602001915061016081023603821315611aa357600080fd5b803563ffffffff8116811461176257600080fd5b60c08183375050565b803567ffffffffffffffff8116811461176257600080fd5b818352600060208085019450826000805b86811015611c515763ffffffff611b9a84611b3e565b1688526001600160a01b03611bb084860161174b565b1684890152604067ffffffffffffffff611bcb828601611b5b565b16908901526060838101356bffffffffffffffffffffffff81168114611bef578384fd5b6bffffffffffffffffffffffff16908901526080838101359089015260a0808401359089015260c0611c22818501611b3e565b63ffffffff169089015260e0611c3c818a01858301611b52565b506101a0978801979290920191600101611b84565b50959695505050505050565b8183526000602080850194508260005b85811015611ce75763ffffffff80611c8484611b3e565b1688526001600160a01b03611c9a84860161174b565b16888501526040838101359089015260608084013590890152608081611cc1828601611b3e565b16908901525060a060c0838201828a013750610160968701969190910190600101611c6d565b509495945050505050565b600060c08083018c845260208c8186015260408c8187015260608481880152838c855260e0880190508d945060005b8d811015611d715763ffffffff80611d3888611b3e565b168352858701358684015280611d4f868901611b3e565b1685840152508683870184840137610120958601959190910190600101611d21565b508781036080890152611d85818c8e611b73565b9550505050505082810360a0840152611d9f818587611c5d565b9c9b505050505050505050505050565b600060208284031215611dc157600080fd5b815161084281611823565b600060208284031215611dde57600080fd5b61084282611b3e565b600060208284031215611df957600080fd5b61084282611b5b565b8181038181111561032d57634e487b7160e01b600052601160045260246000fd5b60208082526025908201527f4552433732313a207472616e736665722066726f6d20696e636f72726563742060408201526437bbb732b960d91b606082015260800190565b60208082526032908201527f4552433732313a207472616e7366657220746f206e6f6e20455243373231526560408201527131b2b4bb32b91034b6b83632b6b2b73a32b960711b606082015260800190565b6001600160a01b0385811682528416602082015260408101839052608060608201819052600090611eed908301846116f3565b9695505050505050565b600060208284031215611f0957600080fd5b81516108428161169c565b634e487b7160e01b600052603160045260246000fdfea264697066735822122010e352c1418f67ea61ab245ab73c5df39da87a457625cfb84278f01b64f49cc664736f6c63430008130033",
    "linkReferences": {}
  },
  "methodIdentifiers": {
    "AXIOM_V1_QUERY_MAINNET_ADDR()": "db7c05c1",
    "BEAR_END_BLOCK()": "9025464d",
    "BEAR_START_BLOCK()": "0effa0f7",
    "NUM_TX_THRESHOLD()": "f7abd2a0",
    "approve(address,uint256)": "095ea7b3",
    "balanceOf(address)": "70a08231",
    "getApproved(uint256)": "081812fc",
    "isApprovedForAll(address,address)": "e985e9c5",
    "mint((bytes32,bytes32,bytes32,(uint32,bytes32,uint32,bytes32[6])[],(uint32,address,uint64,uint96,bytes32,bytes32,uint32,bytes32[6])[],(uint32,address,uint256,uint256,uint32,bytes32[6])[]))": "1ee21986",
    "name()": "06fdde03",
    "ownerOf(uint256)": "6352211e",
    "safeTransferFrom(address,address,uint256)": "42842e0e",
    "safeTransferFrom(address,address,uint256,bytes)": "b88d4fde",
    "setApprovalForAll(address,bool)": "a22cb465",
    "supportsInterface(bytes4)": "01ffc9a7",
    "symbol()": "95d89b41",
    "tokenByIndex(uint256)": "4f6ccce7",
    "tokenOfOwnerByIndex(address,uint256)": "2f745c59",
    "tokenURI(uint256)": "c87b56dd",
    "totalSupply()": "18160ddd",
    "transferFrom(address,address,uint256)": "23b872dd"
  },
  "id": 33
}