{
  "abi": [
    {
      "inputs": [],
      "stateMutability": "nonpayable",
      "type": "constructor"
    },
    {
      "inputs": [],
      "name": "AccountAgeBelowThresholdError",
      "type": "error"
    },
    {
      "inputs": [],
      "name": "AlreadyClaimedError",
      "type": "error"
    },
    {
      "inputs": [],
      "name": "InvalidDataLengthError",
      "type": "error"
    },
    {
      "inputs": [],
      "name": "InvalidNonceError",
      "type": "error"
    },
    {
      "inputs": [],
      "name": "InvalidSenderError",
      "type": "error"
    },
    {
      "inputs": [],
      "name": "ProofError",
      "type": "error"
    },
    {
      "anonymous": false,
      "inputs": [
        {
          "indexed": true,
          "internalType": "address",
          "name": "owner",
          "type": "address"
        },
        {
          "indexed": true,
          "internalType": "address",
          "name": "approved",
          "type": "address"
        },
        {
          "indexed": true,
          "internalType": "uint256",
          "name": "tokenId",
          "type": "uint256"
        }
      ],
      "name": "Approval",
      "type": "event"
    },
    {
      "anonymous": false,
      "inputs": [
        {
          "indexed": true,
          "internalType": "address",
          "name": "owner",
          "type": "address"
        },
        {
          "indexed": true,
          "internalType": "address",
          "name": "operator",
          "type": "address"
        },
        {
          "indexed": false,
          "internalType": "bool",
          "name": "approved",
          "type": "bool"
        }
      ],
      "name": "ApprovalForAll",
      "type": "event"
    },
    {
      "anonymous": false,
      "inputs": [
        {
          "indexed": true,
          "internalType": "address",
          "name": "from",
          "type": "address"
        },
        {
          "indexed": true,
          "internalType": "address",
          "name": "to",
          "type": "address"
        },
        {
          "indexed": true,
          "internalType": "uint256",
          "name": "tokenId",
          "type": "uint256"
        }
      ],
      "name": "Transfer",
      "type": "event"
    },
    {
      "inputs": [],
      "name": "ACCOUNT_AGE_THRESHOLD",
      "outputs": [
        {
          "internalType": "uint256",
          "name": "",
          "type": "uint256"
        }
      ],
      "stateMutability": "view",
      "type": "function"
    },
    {
      "inputs": [],
      "name": "AXIOM_V1_QUERY_GOERLI_ADDR",
      "outputs": [
        {
          "internalType": "address",
          "name": "",
          "type": "address"
        }
      ],
      "stateMutability": "view",
      "type": "function"
    },
    {
      "inputs": [
        {
          "internalType": "address",
          "name": "to",
          "type": "address"
        },
        {
          "internalType": "uint256",
          "name": "tokenId",
          "type": "uint256"
        }
      ],
      "name": "approve",
      "outputs": [],
      "stateMutability": "nonpayable",
      "type": "function"
    },
    {
      "inputs": [
        {
          "internalType": "address",
          "name": "owner",
          "type": "address"
        }
      ],
      "name": "balanceOf",
      "outputs": [
        {
          "internalType": "uint256",
          "name": "",
          "type": "uint256"
        }
      ],
      "stateMutability": "view",
      "type": "function"
    },
    {
      "inputs": [
        {
          "components": [
            {
              "internalType": "bytes32",
              "name": "keccakBlockResponse",
              "type": "bytes32"
            },
            {
              "internalType": "bytes32",
              "name": "keccakAccountResponse",
              "type": "bytes32"
            },
            {
              "internalType": "bytes32",
              "name": "keccakStorageResponse",
              "type": "bytes32"
            },
            {
              "components": [
                {
                  "internalType": "uint32",
                  "name": "blockNumber",
                  "type": "uint32"
                },
                {
                  "internalType": "bytes32",
                  "name": "blockHash",
                  "type": "bytes32"
                },
                {
                  "internalType": "uint32",
                  "name": "leafIdx",
                  "type": "uint32"
                },
                {
                  "internalType": "bytes32[6]",
                  "name": "proof",
                  "type": "bytes32[6]"
                }
              ],
              "internalType": "struct IAxiomV1Query.BlockResponse[]",
              "name": "blockResponses",
              "type": "tuple[]"
            },
            {
              "components": [
                {
                  "internalType": "uint32",
                  "name": "blockNumber",
                  "type": "uint32"
                },
                {
                  "internalType": "address",
                  "name": "addr",
                  "type": "address"
                },
                {
                  "internalType": "uint64",
                  "name": "nonce",
                  "type": "uint64"
                },
                {
                  "internalType": "uint96",
                  "name": "balance",
                  "type": "uint96"
                },
                {
                  "internalType": "bytes32",
                  "name": "storageRoot",
                  "type": "bytes32"
                },
                {
                  "internalType": "bytes32",
                  "name": "codeHash",
                  "type": "bytes32"
                },
                {
                  "internalType": "uint32",
                  "name": "leafIdx",
                  "type": "uint32"
                },
                {
                  "internalType": "bytes32[6]",
                  "name": "proof",
                  "type": "bytes32[6]"
                }
              ],
              "internalType": "struct IAxiomV1Query.AccountResponse[]",
              "name": "accountResponses",
              "type": "tuple[]"
            },
            {
              "components": [
                {
                  "internalType": "uint32",
                  "name": "blockNumber",
                  "type": "uint32"
                },
                {
                  "internalType": "address",
                  "name": "addr",
                  "type": "address"
                },
                {
                  "internalType": "uint256",
                  "name": "slot",
                  "type": "uint256"
                },
                {
                  "internalType": "uint256",
                  "name": "value",
                  "type": "uint256"
                },
                {
                  "internalType": "uint32",
                  "name": "leafIdx",
                  "type": "uint32"
                },
                {
                  "internalType": "bytes32[6]",
                  "name": "proof",
                  "type": "bytes32[6]"
                }
              ],
              "internalType": "struct IAxiomV1Query.StorageResponse[]",
              "name": "storageResponses",
              "type": "tuple[]"
            }
          ],
          "internalType": "struct ResponseStruct",
          "name": "response",
          "type": "tuple"
        }
      ],
      "name": "claim",
      "outputs": [],
      "stateMutability": "nonpayable",
      "type": "function"
    },
    {
      "inputs": [
        {
          "internalType": "uint256",
          "name": "tokenId",
          "type": "uint256"
        }
      ],
      "name": "getApproved",
      "outputs": [
        {
          "internalType": "address",
          "name": "",
          "type": "address"
        }
      ],
      "stateMutability": "view",
      "type": "function"
    },
    {
      "inputs": [
        {
          "internalType": "address",
          "name": "",
          "type": "address"
        }
      ],
      "name": "hasMinted",
      "outputs": [
        {
          "internalType": "bool",
          "name": "",
          "type": "bool"
        }
      ],
      "stateMutability": "view",
      "type": "function"
    },
    {
      "inputs": [
        {
          "internalType": "address",
          "name": "owner",
          "type": "address"
        },
        {
          "internalType": "address",
          "name": "operator",
          "type": "address"
        }
      ],
      "name": "isApprovedForAll",
      "outputs": [
        {
          "internalType": "bool",
          "name": "",
          "type": "bool"
        }
      ],
      "stateMutability": "view",
      "type": "function"
    },
    {
      "inputs": [],
      "name": "name",
      "outputs": [
        {
          "internalType": "string",
          "name": "",
          "type": "string"
        }
      ],
      "stateMutability": "view",
      "type": "function"
    },
    {
      "inputs": [
        {
          "internalType": "uint256",
          "name": "tokenId",
          "type": "uint256"
        }
      ],
      "name": "ownerOf",
      "outputs": [
        {
          "internalType": "address",
          "name": "",
          "type": "address"
        }
      ],
      "stateMutability": "view",
      "type": "function"
    },
    {
      "inputs": [
        {
          "internalType": "address",
          "name": "from",
          "type": "address"
        },
        {
          "internalType": "address",
          "name": "to",
          "type": "address"
        },
        {
          "internalType": "uint256",
          "name": "tokenId",
          "type": "uint256"
        }
      ],
      "name": "safeTransferFrom",
      "outputs": [],
      "stateMutability": "nonpayable",
      "type": "function"
    },
    {
      "inputs": [
        {
          "internalType": "address",
          "name": "from",
          "type": "address"
        },
        {
          "internalType": "address",
          "name": "to",
          "type": "address"
        },
        {
          "internalType": "uint256",
          "name": "tokenId",
          "type": "uint256"
        },
        {
          "internalType": "bytes",
          "name": "data",
          "type": "bytes"
        }
      ],
      "name": "safeTransferFrom",
      "outputs": [],
      "stateMutability": "nonpayable",
      "type": "function"
    },
    {
      "inputs": [
        {
          "internalType": "address",
          "name": "operator",
          "type": "address"
        },
        {
          "internalType": "bool",
          "name": "approved",
          "type": "bool"
        }
      ],
      "name": "setApprovalForAll",
      "outputs": [],
      "stateMutability": "nonpayable",
      "type": "function"
    },
    {
      "inputs": [
        {
          "internalType": "bytes4",
          "name": "interfaceId",
          "type": "bytes4"
        }
      ],
      "name": "supportsInterface",
      "outputs": [
        {
          "internalType": "bool",
          "name": "",
          "type": "bool"
        }
      ],
      "stateMutability": "view",
      "type": "function"
    },
    {
      "inputs": [],
      "name": "symbol",
      "outputs": [
        {
          "internalType": "string",
          "name": "",
          "type": "string"
        }
      ],
      "stateMutability": "view",
      "type": "function"
    },
    {
      "inputs": [
        {
          "internalType": "uint256",
          "name": "index",
          "type": "uint256"
        }
      ],
      "name": "tokenByIndex",
      "outputs": [
        {
          "internalType": "uint256",
          "name": "",
          "type": "uint256"
        }
      ],
      "stateMutability": "view",
      "type": "function"
    },
    {
      "inputs": [
        {
          "internalType": "address",
          "name": "owner",
          "type": "address"
        },
        {
          "internalType": "uint256",
          "name": "index",
          "type": "uint256"
        }
      ],
      "name": "tokenOfOwnerByIndex",
      "outputs": [
        {
          "internalType": "uint256",
          "name": "",
          "type": "uint256"
        }
      ],
      "stateMutability": "view",
      "type": "function"
    },
    {
      "inputs": [
        {
          "internalType": "uint256",
          "name": "tokenId",
          "type": "uint256"
        }
      ],
      "name": "tokenURI",
      "outputs": [
        {
          "internalType": "string",
          "name": "",
          "type": "string"
        }
      ],
      "stateMutability": "view",
      "type": "function"
    },
    {
      "inputs": [],
      "name": "totalSupply",
      "outputs": [
        {
          "internalType": "uint256",
          "name": "",
          "type": "uint256"
        }
      ],
      "stateMutability": "view",
      "type": "function"
    },
    {
      "inputs": [
        {
          "internalType": "address",
          "name": "from",
          "type": "address"
        },
        {
          "internalType": "address",
          "name": "to",
          "type": "address"
        },
        {
          "internalType": "uint256",
          "name": "tokenId",
          "type": "uint256"
        }
      ],
      "name": "transferFrom",
      "outputs": [],
      "stateMutability": "nonpayable",
      "type": "function"
    }
  ],
  "bytecode": {
    "object": "0x60806040523480156200001157600080fd5b506040518060400160405280600b81526020016a2234b9ba3934b13aba37b960a91b815250604051806040016040528060038152602001621114d560ea1b815250816000908162000063919062000120565b50600162000072828262000120565b505050620001ec565b634e487b7160e01b600052604160045260246000fd5b600181811c90821680620000a657607f821691505b602082108103620000c757634e487b7160e01b600052602260045260246000fd5b50919050565b601f8211156200011b57600081815260208120601f850160051c81016020861015620000f65750805b601f850160051c820191505b81811015620001175782815560010162000102565b5050505b505050565b81516001600160401b038111156200013c576200013c6200007b565b62000154816200014d845462000091565b84620000cd565b602080601f8311600181146200018c5760008415620001735750858301515b600019600386901b1c1916600185901b17855562000117565b600085815260208120601f198616915b82811015620001bd578886015182559484019460019091019084016200019c565b5085821015620001dc5787850151600019600388901b60f8161c191681555b5050505050600190811b01905550565b611ebe80620001fc6000396000f3fe608060405234801561001057600080fd5b506004361061012c5760003560e01c80636352211e116100ad578063a7f9219911610071578063a7f9219914610283578063b88d4fde1461028b578063c87b56dd1461029e578063e985e9c5146102b1578063f623265b146102ed57600080fd5b80636352211e1461022f57806370a082311461024257806395d89b4114610255578063a22cb4651461025d578063a61c79501461027057600080fd5b806323b872dd116100f457806323b872dd146101c05780632f745c59146101d357806338e21cce146101e657806342842e0e146102095780634f6ccce71461021c57600080fd5b806301ffc9a71461013157806306fdde0314610159578063081812fc1461016e578063095ea7b31461019957806318160ddd146101ae575b600080fd5b61014461013f366004611610565b610308565b60405190151581526020015b60405180910390f35b610161610333565b604051610150919061167d565b61018161017c366004611690565b6103c5565b6040516001600160a01b039091168152602001610150565b6101ac6101a73660046116c5565b6103ec565b005b6008545b604051908152602001610150565b6101ac6101ce3660046116ef565b610506565b6101b26101e13660046116c5565b610537565b6101446101f436600461172b565b600a6020526000908152604090205460ff1681565b6101ac6102173660046116ef565b6105cd565b6101b261022a366004611690565b6105e8565b61018161023d366004611690565b61067b565b6101b261025036600461172b565b6106db565b610161610761565b6101ac61026b366004611754565b610770565b6101ac61027e36600461178b565b61077f565b6101b260fa81565b6101ac6102993660046117dc565b6107e3565b6101616102ac366004611690565b61081b565b6101446102bf3660046118b8565b6001600160a01b03918216600090815260056020908152604080832093909416825291909152205460ff1690565b610181734fb202140c5319106f15706b1a69e441c953630681565b60006001600160e01b0319821663780e9d6360e01b148061032d575061032d8261088f565b92915050565b606060008054610342906118eb565b80601f016020809104026020016040519081016040528092919081815260200182805461036e906118eb565b80156103bb5780601f10610390576101008083540402835291602001916103bb565b820191906000526020600020905b81548152906001019060200180831161039e57829003601f168201915b5050505050905090565b60006103d0826108df565b506000908152600460205260409020546001600160a01b031690565b60006103f78261067b565b9050806001600160a01b0316836001600160a01b0316036104695760405162461bcd60e51b815260206004820152602160248201527f4552433732313a20617070726f76616c20746f2063757272656e74206f776e656044820152603960f91b60648201526084015b60405180910390fd5b336001600160a01b0382161480610485575061048581336102bf565b6104f75760405162461bcd60e51b815260206004820152603d60248201527f4552433732313a20617070726f76652063616c6c6572206973206e6f7420746f60448201527f6b656e206f776e6572206f7220617070726f76656420666f7220616c6c0000006064820152608401610460565b610501838361093e565b505050565b61051033826109ac565b61052c5760405162461bcd60e51b815260040161046090611925565b610501838383610a2b565b6000610542836106db565b82106105a45760405162461bcd60e51b815260206004820152602b60248201527f455243373231456e756d657261626c653a206f776e657220696e646578206f7560448201526a74206f6620626f756e647360a81b6064820152608401610460565b506001600160a01b03919091166000908152600660209081526040808320938352929052205490565b610501838383604051806020016040528060008152506107e3565b60006105f360085490565b82106106565760405162461bcd60e51b815260206004820152602c60248201527f455243373231456e756d657261626c653a20676c6f62616c20696e646578206f60448201526b7574206f6620626f756e647360a01b6064820152608401610460565b6008828154811061066957610669611972565b90600052602060002001549050919050565b6000818152600260205260408120546001600160a01b03168061032d5760405162461bcd60e51b8152602060048201526018602482015277115490cdcc8c4e881a5b9d985b1a59081d1bdad95b88125160421b6044820152606401610460565b60006001600160a01b0382166107455760405162461bcd60e51b815260206004820152602960248201527f4552433732313a2061646472657373207a65726f206973206e6f7420612076616044820152683634b21037bbb732b960b91b6064820152608401610460565b506001600160a01b031660009081526003602052604090205490565b606060018054610342906118eb565b61077b338383610b9c565b5050565b336000908152600a602052604090205460ff16156107b057604051635f1e377d60e01b815260040160405180910390fd5b6107b981610c6a565b336000818152600a60205260409020805460ff191660011790556008546107e09190610eb1565b50565b6107ed33836109ac565b6108095760405162461bcd60e51b815260040161046090611925565b61081584848484610ecb565b50505050565b6060610826826108df565b600061083d60408051602081019091526000815290565b9050600081511161085d5760405180602001604052806000815250610888565b8061086784610efe565b604051602001610878929190611988565b6040516020818303038152906040525b9392505050565b60006001600160e01b031982166380ac58cd60e01b14806108c057506001600160e01b03198216635b5e139f60e01b145b8061032d57506301ffc9a760e01b6001600160e01b031983161461032d565b6000818152600260205260409020546001600160a01b03166107e05760405162461bcd60e51b8152602060048201526018602482015277115490cdcc8c4e881a5b9d985b1a59081d1bdad95b88125160421b6044820152606401610460565b600081815260046020526040902080546001600160a01b0319166001600160a01b03841690811790915581906109738261067b565b6001600160a01b03167f8c5be1e5ebec7d5bd14f71427d1e84f3dd0314c0f7b2291e5b200ac8c7c3b92560405160405180910390a45050565b6000806109b88361067b565b9050806001600160a01b0316846001600160a01b031614806109ff57506001600160a01b0380821660009081526005602090815260408083209388168352929052205460ff165b80610a235750836001600160a01b0316610a18846103c5565b6001600160a01b0316145b949350505050565b826001600160a01b0316610a3e8261067b565b6001600160a01b031614610a645760405162461bcd60e51b8152600401610460906119b7565b6001600160a01b038216610ac65760405162461bcd60e51b8152602060048201526024808201527f4552433732313a207472616e7366657220746f20746865207a65726f206164646044820152637265737360e01b6064820152608401610460565b610ad38383836001610f91565b826001600160a01b0316610ae68261067b565b6001600160a01b031614610b0c5760405162461bcd60e51b8152600401610460906119b7565b600081815260046020908152604080832080546001600160a01b03199081169091556001600160a01b0387811680865260038552838620805460001901905590871680865283862080546001019055868652600290945282852080549092168417909155905184937fddf252ad1be2c89b69c2b068fc378daa952ba7f163c4a11628f55a4df523b3ef91a4505050565b816001600160a01b0316836001600160a01b031603610bfd5760405162461bcd60e51b815260206004820152601960248201527f4552433732313a20617070726f766520746f2063616c6c6572000000000000006044820152606401610460565b6001600160a01b03838116600081815260056020908152604080832094871680845294825291829020805460ff191686151590811790915591519182527f17307eab39ab6107e8899845ad3d59bd9653f200f220920489ca2b5937696c31910160405180910390a3505050565b734fb202140c5319106f15706b1a69e441c9536306600081636439e9d4843560208601356040870135610ca060608901896119fc565b610cad60808b018b611a4d565b610cba60a08d018d611a97565b6040518a63ffffffff1660e01b8152600401610cde99989796959493929190611c95565b602060405180830381865afa158015610cfb573d6000803e3d6000fd5b505050506040513d601f19601f82011682018060405250810190610d1f9190611d52565b905080610d3f57604051636728b69360e11b815260040160405180910390fd5b6000610d4e6080850185611a4d565b91505060018114610d7257604051633cbac2d960e11b815260040160405180910390fd5b6000610d816080860186611a4d565b6000818110610d9257610d92611972565b610da99260206101a0909202019081019150611d6f565b63ffffffff1690506000610dc06080870187611a4d565b6000818110610dd157610dd1611972565b90506101a002016040016020810190610dea9190611d8a565b67ffffffffffffffff1690506000610e056080880188611a4d565b6000818110610e1657610e16611972565b90506101a002016020016020810190610e2f919061172b565b90504360018314610e535760405163612ad98160e11b815260040160405180910390fd5b6001600160a01b0382163314610e7c57604051635e9644c160e11b815260040160405180910390fd5b83610e8860fa83611da5565b1015610ea757604051639a92d45b60e01b815260040160405180910390fd5b5050505050505050565b61077b8282604051806020016040528060008152506110c5565b610ed6848484610a2b565b610ee2848484846110f8565b6108155760405162461bcd60e51b815260040161046090611dc6565b60606000610f0b836111f9565b600101905060008167ffffffffffffffff811115610f2b57610f2b6117c6565b6040519080825280601f01601f191660200182016040528015610f55576020820181803683370190505b5090508181016020015b600019016f181899199a1a9b1b9c1cb0b131b232b360811b600a86061a8153600a8504945084610f5f57509392505050565b60018111156110005760405162461bcd60e51b815260206004820152603560248201527f455243373231456e756d657261626c653a20636f6e7365637574697665207472604482015274185b9cd9995c9cc81b9bdd081cdd5c1c1bdc9d1959605a1b6064820152608401610460565b816001600160a01b03851661105c5761105781600880546000838152600960205260408120829055600182018355919091527ff3f7a9fe364faab93b216da50a3214154f22a0a2b415b23a84c8169e8b636ee30155565b61107f565b836001600160a01b0316856001600160a01b03161461107f5761107f85826112d1565b6001600160a01b03841661109b576110968161136e565b6110be565b846001600160a01b0316846001600160a01b0316146110be576110be848261141d565b5050505050565b6110cf8383611461565b6110dc60008484846110f8565b6105015760405162461bcd60e51b815260040161046090611dc6565b60006001600160a01b0384163b156111ee57604051630a85bd0160e11b81526001600160a01b0385169063150b7a029061113c903390899088908890600401611e18565b6020604051808303816000875af1925050508015611177575060408051601f3d908101601f1916820190925261117491810190611e55565b60015b6111d4573d8080156111a5576040519150601f19603f3d011682016040523d82523d6000602084013e6111aa565b606091505b5080516000036111cc5760405162461bcd60e51b815260040161046090611dc6565b805181602001fd5b6001600160e01b031916630a85bd0160e11b149050610a23565b506001949350505050565b60008072184f03e93ff9f4daa797ed6e38ed64bf6a1f0160401b83106112385772184f03e93ff9f4daa797ed6e38ed64bf6a1f0160401b830492506040015b6d04ee2d6d415b85acef81000000008310611264576d04ee2d6d415b85acef8100000000830492506020015b662386f26fc10000831061128257662386f26fc10000830492506010015b6305f5e100831061129a576305f5e100830492506008015b61271083106112ae57612710830492506004015b606483106112c0576064830492506002015b600a831061032d5760010192915050565b600060016112de846106db565b6112e89190611da5565b60008381526007602052604090205490915080821461133b576001600160a01b03841660009081526006602090815260408083208584528252808320548484528184208190558352600790915290208190555b5060009182526007602090815260408084208490556001600160a01b039094168352600681528383209183525290812055565b60085460009061138090600190611da5565b600083815260096020526040812054600880549394509092849081106113a8576113a8611972565b9060005260206000200154905080600883815481106113c9576113c9611972565b600091825260208083209091019290925582815260099091526040808220849055858252812055600880548061140157611401611e72565b6001900381819060005260206000200160009055905550505050565b6000611428836106db565b6001600160a01b039093166000908152600660209081526040808320868452825280832085905593825260079052919091209190915550565b6001600160a01b0382166114b75760405162461bcd60e51b815260206004820181905260248201527f4552433732313a206d696e7420746f20746865207a65726f20616464726573736044820152606401610460565b6000818152600260205260409020546001600160a01b03161561151c5760405162461bcd60e51b815260206004820152601c60248201527f4552433732313a20746f6b656e20616c7265616479206d696e746564000000006044820152606401610460565b61152a600083836001610f91565b6000818152600260205260409020546001600160a01b03161561158f5760405162461bcd60e51b815260206004820152601c60248201527f4552433732313a20746f6b656e20616c7265616479206d696e746564000000006044820152606401610460565b6001600160a01b038216600081815260036020908152604080832080546001019055848352600290915280822080546001600160a01b0319168417905551839291907fddf252ad1be2c89b69c2b068fc378daa952ba7f163c4a11628f55a4df523b3ef908290a45050565b6001600160e01b0319811681146107e057600080fd5b60006020828403121561162257600080fd5b8135610888816115fa565b60005b83811015611648578181015183820152602001611630565b50506000910152565b6000815180845261166981602086016020860161162d565b601f01601f19169290920160200192915050565b6020815260006108886020830184611651565b6000602082840312156116a257600080fd5b5035919050565b80356001600160a01b03811681146116c057600080fd5b919050565b600080604083850312156116d857600080fd5b6116e1836116a9565b946020939093013593505050565b60008060006060848603121561170457600080fd5b61170d846116a9565b925061171b602085016116a9565b9150604084013590509250925092565b60006020828403121561173d57600080fd5b610888826116a9565b80151581146107e057600080fd5b6000806040838503121561176757600080fd5b611770836116a9565b9150602083013561178081611746565b809150509250929050565b60006020828403121561179d57600080fd5b813567ffffffffffffffff8111156117b457600080fd5b820160c0818503121561088857600080fd5b634e487b7160e01b600052604160045260246000fd5b600080600080608085870312156117f257600080fd5b6117fb856116a9565b9350611809602086016116a9565b925060408501359150606085013567ffffffffffffffff8082111561182d57600080fd5b818701915087601f83011261184157600080fd5b813581811115611853576118536117c6565b604051601f8201601f19908116603f0116810190838211818310171561187b5761187b6117c6565b816040528281528a602084870101111561189457600080fd5b82602086016020830137600060208483010152809550505050505092959194509250565b600080604083850312156118cb57600080fd5b6118d4836116a9565b91506118e2602084016116a9565b90509250929050565b600181811c908216806118ff57607f821691505b60208210810361191f57634e487b7160e01b600052602260045260246000fd5b50919050565b6020808252602d908201527f4552433732313a2063616c6c6572206973206e6f7420746f6b656e206f776e6560408201526c1c881bdc88185c1c1c9bdd9959609a1b606082015260800190565b634e487b7160e01b600052603260045260246000fd5b6000835161199a81846020880161162d565b8351908301906119ae81836020880161162d565b01949350505050565b60208082526025908201527f4552433732313a207472616e736665722066726f6d20696e636f72726563742060408201526437bbb732b960d91b606082015260800190565b6000808335601e19843603018112611a1357600080fd5b83018035915067ffffffffffffffff821115611a2e57600080fd5b602001915061012081023603821315611a4657600080fd5b9250929050565b6000808335601e19843603018112611a6457600080fd5b83018035915067ffffffffffffffff821115611a7f57600080fd5b60200191506101a081023603821315611a4657600080fd5b6000808335601e19843603018112611aae57600080fd5b83018035915067ffffffffffffffff821115611ac957600080fd5b602001915061016081023603821315611a4657600080fd5b803563ffffffff811681146116c057600080fd5b60c08183375050565b803567ffffffffffffffff811681146116c057600080fd5b818352600060208085019450826000805b86811015611bf45763ffffffff611b3d84611ae1565b1688526001600160a01b03611b538486016116a9565b1684890152604067ffffffffffffffff611b6e828601611afe565b16908901526060838101356bffffffffffffffffffffffff81168114611b92578384fd5b6bffffffffffffffffffffffff16908901526080838101359089015260a0808401359089015260c0611bc5818501611ae1565b63ffffffff169089015260e0611bdf818a01858301611af5565b506101a0978801979290920191600101611b27565b50959695505050505050565b8183526000602080850194508260005b85811015611c8a5763ffffffff80611c2784611ae1565b1688526001600160a01b03611c3d8486016116a9565b16888501526040838101359089015260608084013590890152608081611c64828601611ae1565b16908901525060a060c0838201828a013750610160968701969190910190600101611c10565b509495945050505050565b600060c08083018c845260208c8186015260408c8187015260608481880152838c855260e0880190508d945060005b8d811015611d145763ffffffff80611cdb88611ae1565b168352858701358684015280611cf2868901611ae1565b1685840152508683870184840137610120958601959190910190600101611cc4565b508781036080890152611d28818c8e611b16565b9550505050505082810360a0840152611d42818587611c00565b9c9b505050505050505050505050565b600060208284031215611d6457600080fd5b815161088881611746565b600060208284031215611d8157600080fd5b61088882611ae1565b600060208284031215611d9c57600080fd5b61088882611afe565b8181038181111561032d57634e487b7160e01b600052601160045260246000fd5b60208082526032908201527f4552433732313a207472616e7366657220746f206e6f6e20455243373231526560408201527131b2b4bb32b91034b6b83632b6b2b73a32b960711b606082015260800190565b6001600160a01b0385811682528416602082015260408101839052608060608201819052600090611e4b90830184611651565b9695505050505050565b600060208284031215611e6757600080fd5b8151610888816115fa565b634e487b7160e01b600052603160045260246000fdfea2646970667358221220ea07eccc016546318711821d54bdd1b7fec56e5d56e04c29f1a7fd46cd62ad9b64736f6c63430008130033",
    "linkReferences": {}
  },
  "methodIdentifiers": {
    "ACCOUNT_AGE_THRESHOLD()": "a7f92199",
    "AXIOM_V1_QUERY_GOERLI_ADDR()": "f623265b",
    "approve(address,uint256)": "095ea7b3",
    "balanceOf(address)": "70a08231",
    "claim((bytes32,bytes32,bytes32,(uint32,bytes32,uint32,bytes32[6])[],(uint32,address,uint64,uint96,bytes32,bytes32,uint32,bytes32[6])[],(uint32,address,uint256,uint256,uint32,bytes32[6])[]))": "a61c7950",
    "getApproved(uint256)": "081812fc",
    "hasMinted(address)": "38e21cce",
    "isApprovedForAll(address,address)": "e985e9c5",
    "name()": "06fdde03",
    "ownerOf(uint256)": "6352211e",
    "safeTransferFrom(address,address,uint256)": "42842e0e",
    "safeTransferFrom(address,address,uint256,bytes)": "b88d4fde",
    "setApprovalForAll(address,bool)": "a22cb465",
    "supportsInterface(bytes4)": "01ffc9a7",
    "symbol()": "95d89b41",
    "tokenByIndex(uint256)": "4f6ccce7",
    "tokenOfOwnerByIndex(address,uint256)": "2f745c59",
    "tokenURI(uint256)": "c87b56dd",
    "totalSupply()": "18160ddd",
    "transferFrom(address,address,uint256)": "23b872dd"
  },
  "storageLayout": {
    "storage": [
      {
        "astId": 42917,
        "contract": "src/Distributor.sol:Distributor",
        "label": "_name",
        "offset": 0,
        "slot": "0",
        "type": "t_string_storage"
      },
      {
        "astId": 42919,
        "contract": "src/Distributor.sol:Distributor",
        "label": "_symbol",
        "offset": 0,
        "slot": "1",
        "type": "t_string_storage"
      },
      {
        "astId": 42923,
        "contract": "src/Distributor.sol:Distributor",
        "label": "_owners",
        "offset": 0,
        "slot": "2",
        "type": "t_mapping(t_uint256,t_address)"
      },
      {
        "astId": 42927,
        "contract": "src/Distributor.sol:Distributor",
        "label": "_balances",
        "offset": 0,
        "slot": "3",
        "type": "t_mapping(t_address,t_uint256)"
      },
      {
        "astId": 42931,
        "contract": "src/Distributor.sol:Distributor",
        "label": "_tokenApprovals",
        "offset": 0,
        "slot": "4",
        "type": "t_mapping(t_uint256,t_address)"
      },
      {
        "astId": 42937,
        "contract": "src/Distributor.sol:Distributor",
        "label": "_operatorApprovals",
        "offset": 0,
        "slot": "5",
        "type": "t_mapping(t_address,t_mapping(t_address,t_bool))"
      },
      {
        "astId": 43967,
        "contract": "src/Distributor.sol:Distributor",
        "label": "_ownedTokens",
        "offset": 0,
        "slot": "6",
        "type": "t_mapping(t_address,t_mapping(t_uint256,t_uint256))"
      },
      {
        "astId": 43971,
        "contract": "src/Distributor.sol:Distributor",
        "label": "_ownedTokensIndex",
        "offset": 0,
        "slot": "7",
        "type": "t_mapping(t_uint256,t_uint256)"
      },
      {
        "astId": 43974,
        "contract": "src/Distributor.sol:Distributor",
        "label": "_allTokens",
        "offset": 0,
        "slot": "8",
        "type": "t_array(t_uint256)dyn_storage"
      },
      {
        "astId": 43978,
        "contract": "src/Distributor.sol:Distributor",
        "label": "_allTokensIndex",
        "offset": 0,
        "slot": "9",
        "type": "t_mapping(t_uint256,t_uint256)"
      },
      {
        "astId": 46026,
        "contract": "src/Distributor.sol:Distributor",
        "label": "hasMinted",
        "offset": 0,
        "slot": "10",
        "type": "t_mapping(t_address,t_bool)"
      }
    ],
    "types": {
      "t_address": {
        "encoding": "inplace",
        "label": "address",
        "numberOfBytes": "20"
      },
      "t_array(t_uint256)dyn_storage": {
        "encoding": "dynamic_array",
        "label": "uint256[]",
        "numberOfBytes": "32",
        "base": "t_uint256"
      },
      "t_bool": {
        "encoding": "inplace",
        "label": "bool",
        "numberOfBytes": "1"
      },
      "t_mapping(t_address,t_bool)": {
        "encoding": "mapping",
        "key": "t_address",
        "label": "mapping(address => bool)",
        "numberOfBytes": "32",
        "value": "t_bool"
      },
      "t_mapping(t_address,t_mapping(t_address,t_bool))": {
        "encoding": "mapping",
        "key": "t_address",
        "label": "mapping(address => mapping(address => bool))",
        "numberOfBytes": "32",
        "value": "t_mapping(t_address,t_bool)"
      },
      "t_mapping(t_address,t_mapping(t_uint256,t_uint256))": {
        "encoding": "mapping",
        "key": "t_address",
        "label": "mapping(address => mapping(uint256 => uint256))",
        "numberOfBytes": "32",
        "value": "t_mapping(t_uint256,t_uint256)"
      },
      "t_mapping(t_address,t_uint256)": {
        "encoding": "mapping",
        "key": "t_address",
        "label": "mapping(address => uint256)",
        "numberOfBytes": "32",
        "value": "t_uint256"
      },
      "t_mapping(t_uint256,t_address)": {
        "encoding": "mapping",
        "key": "t_uint256",
        "label": "mapping(uint256 => address)",
        "numberOfBytes": "32",
        "value": "t_address"
      },
      "t_mapping(t_uint256,t_uint256)": {
        "encoding": "mapping",
        "key": "t_uint256",
        "label": "mapping(uint256 => uint256)",
        "numberOfBytes": "32",
        "value": "t_uint256"
      },
      "t_string_storage": {
        "encoding": "bytes",
        "label": "string",
        "numberOfBytes": "32"
      },
      "t_uint256": {
        "encoding": "inplace",
        "label": "uint256",
        "numberOfBytes": "32"
      }
    }
  },
  "id": 33
}