{
  "abi": [
    {
      "inputs": [],
      "stateMutability": "nonpayable",
      "type": "constructor"
    },
    {
      "inputs": [],
      "name": "AccountAgeBelowThresholdError",
      "type": "error"
    },
    {
      "inputs": [],
      "name": "AlreadyClaimedError",
      "type": "error"
    },
    {
      "inputs": [],
      "name": "InvalidDataLengthError",
      "type": "error"
    },
    {
      "inputs": [],
      "name": "InvalidNonceError",
      "type": "error"
    },
    {
      "inputs": [],
      "name": "InvalidSenderError",
      "type": "error"
    },
    {
      "inputs": [],
      "name": "ProofError",
      "type": "error"
    },
    {
      "anonymous": false,
      "inputs": [
        {
          "indexed": true,
          "internalType": "address",
          "name": "owner",
          "type": "address"
        },
        {
          "indexed": true,
          "internalType": "address",
          "name": "spender",
          "type": "address"
        },
        {
          "indexed": false,
          "internalType": "uint256",
          "name": "value",
          "type": "uint256"
        }
      ],
      "name": "Approval",
      "type": "event"
    },
    {
      "anonymous": false,
      "inputs": [
        {
          "indexed": true,
          "internalType": "address",
          "name": "from",
          "type": "address"
        },
        {
          "indexed": true,
          "internalType": "address",
          "name": "to",
          "type": "address"
        },
        {
          "indexed": false,
          "internalType": "uint256",
          "name": "value",
          "type": "uint256"
        }
      ],
      "name": "Transfer",
      "type": "event"
    },
    {
      "inputs": [],
      "name": "ACCOUNT_AGE_THRESHOLD",
      "outputs": [
        {
          "internalType": "uint256",
          "name": "",
          "type": "uint256"
        }
      ],
      "stateMutability": "view",
      "type": "function"
    },
    {
      "inputs": [],
      "name": "AXIOM_V1_QUERY_GOERLI_ADDR",
      "outputs": [
        {
          "internalType": "address",
          "name": "",
          "type": "address"
        }
      ],
      "stateMutability": "view",
      "type": "function"
    },
    {
      "inputs": [
        {
          "internalType": "address",
          "name": "owner",
          "type": "address"
        },
        {
          "internalType": "address",
          "name": "spender",
          "type": "address"
        }
      ],
      "name": "allowance",
      "outputs": [
        {
          "internalType": "uint256",
          "name": "",
          "type": "uint256"
        }
      ],
      "stateMutability": "view",
      "type": "function"
    },
    {
      "inputs": [
        {
          "internalType": "address",
          "name": "spender",
          "type": "address"
        },
        {
          "internalType": "uint256",
          "name": "amount",
          "type": "uint256"
        }
      ],
      "name": "approve",
      "outputs": [
        {
          "internalType": "bool",
          "name": "",
          "type": "bool"
        }
      ],
      "stateMutability": "nonpayable",
      "type": "function"
    },
    {
      "inputs": [
        {
          "internalType": "address",
          "name": "account",
          "type": "address"
        }
      ],
      "name": "balanceOf",
      "outputs": [
        {
          "internalType": "uint256",
          "name": "",
          "type": "uint256"
        }
      ],
      "stateMutability": "view",
      "type": "function"
    },
    {
      "inputs": [
        {
          "components": [
            {
              "internalType": "bytes32",
              "name": "keccakBlockResponse",
              "type": "bytes32"
            },
            {
              "internalType": "bytes32",
              "name": "keccakAccountResponse",
              "type": "bytes32"
            },
            {
              "internalType": "bytes32",
              "name": "keccakStorageResponse",
              "type": "bytes32"
            },
            {
              "components": [
                {
                  "internalType": "uint32",
                  "name": "blockNumber",
                  "type": "uint32"
                },
                {
                  "internalType": "bytes32",
                  "name": "blockHash",
                  "type": "bytes32"
                },
                {
                  "internalType": "uint32",
                  "name": "leafIdx",
                  "type": "uint32"
                },
                {
                  "internalType": "bytes32[6]",
                  "name": "proof",
                  "type": "bytes32[6]"
                }
              ],
              "internalType": "struct IAxiomV1Query.BlockResponse[]",
              "name": "blockResponses",
              "type": "tuple[]"
            },
            {
              "components": [
                {
                  "internalType": "uint32",
                  "name": "blockNumber",
                  "type": "uint32"
                },
                {
                  "internalType": "address",
                  "name": "addr",
                  "type": "address"
                },
                {
                  "internalType": "uint64",
                  "name": "nonce",
                  "type": "uint64"
                },
                {
                  "internalType": "uint96",
                  "name": "balance",
                  "type": "uint96"
                },
                {
                  "internalType": "bytes32",
                  "name": "storageRoot",
                  "type": "bytes32"
                },
                {
                  "internalType": "bytes32",
                  "name": "codeHash",
                  "type": "bytes32"
                },
                {
                  "internalType": "uint32",
                  "name": "leafIdx",
                  "type": "uint32"
                },
                {
                  "internalType": "bytes32[6]",
                  "name": "proof",
                  "type": "bytes32[6]"
                }
              ],
              "internalType": "struct IAxiomV1Query.AccountResponse[]",
              "name": "accountResponses",
              "type": "tuple[]"
            },
            {
              "components": [
                {
                  "internalType": "uint32",
                  "name": "blockNumber",
                  "type": "uint32"
                },
                {
                  "internalType": "address",
                  "name": "addr",
                  "type": "address"
                },
                {
                  "internalType": "uint256",
                  "name": "slot",
                  "type": "uint256"
                },
                {
                  "internalType": "uint256",
                  "name": "value",
                  "type": "uint256"
                },
                {
                  "internalType": "uint32",
                  "name": "leafIdx",
                  "type": "uint32"
                },
                {
                  "internalType": "bytes32[6]",
                  "name": "proof",
                  "type": "bytes32[6]"
                }
              ],
              "internalType": "struct IAxiomV1Query.StorageResponse[]",
              "name": "storageResponses",
              "type": "tuple[]"
            }
          ],
          "internalType": "struct ResponseStruct",
          "name": "response",
          "type": "tuple"
        }
      ],
      "name": "claimTokens",
      "outputs": [],
      "stateMutability": "nonpayable",
      "type": "function"
    },
    {
      "inputs": [],
      "name": "decimals",
      "outputs": [
        {
          "internalType": "uint8",
          "name": "",
          "type": "uint8"
        }
      ],
      "stateMutability": "view",
      "type": "function"
    },
    {
      "inputs": [
        {
          "internalType": "address",
          "name": "spender",
          "type": "address"
        },
        {
          "internalType": "uint256",
          "name": "subtractedValue",
          "type": "uint256"
        }
      ],
      "name": "decreaseAllowance",
      "outputs": [
        {
          "internalType": "bool",
          "name": "",
          "type": "bool"
        }
      ],
      "stateMutability": "nonpayable",
      "type": "function"
    },
    {
      "inputs": [
        {
          "internalType": "address",
          "name": "",
          "type": "address"
        }
      ],
      "name": "hasClaimed",
      "outputs": [
        {
          "internalType": "bool",
          "name": "",
          "type": "bool"
        }
      ],
      "stateMutability": "view",
      "type": "function"
    },
    {
      "inputs": [
        {
          "internalType": "address",
          "name": "spender",
          "type": "address"
        },
        {
          "internalType": "uint256",
          "name": "addedValue",
          "type": "uint256"
        }
      ],
      "name": "increaseAllowance",
      "outputs": [
        {
          "internalType": "bool",
          "name": "",
          "type": "bool"
        }
      ],
      "stateMutability": "nonpayable",
      "type": "function"
    },
    {
      "inputs": [],
      "name": "name",
      "outputs": [
        {
          "internalType": "string",
          "name": "",
          "type": "string"
        }
      ],
      "stateMutability": "view",
      "type": "function"
    },
    {
      "inputs": [],
      "name": "symbol",
      "outputs": [
        {
          "internalType": "string",
          "name": "",
          "type": "string"
        }
      ],
      "stateMutability": "view",
      "type": "function"
    },
    {
      "inputs": [],
      "name": "totalSupply",
      "outputs": [
        {
          "internalType": "uint256",
          "name": "",
          "type": "uint256"
        }
      ],
      "stateMutability": "view",
      "type": "function"
    },
    {
      "inputs": [
        {
          "internalType": "address",
          "name": "to",
          "type": "address"
        },
        {
          "internalType": "uint256",
          "name": "amount",
          "type": "uint256"
        }
      ],
      "name": "transfer",
      "outputs": [
        {
          "internalType": "bool",
          "name": "",
          "type": "bool"
        }
      ],
      "stateMutability": "nonpayable",
      "type": "function"
    },
    {
      "inputs": [
        {
          "internalType": "address",
          "name": "from",
          "type": "address"
        },
        {
          "internalType": "address",
          "name": "to",
          "type": "address"
        },
        {
          "internalType": "uint256",
          "name": "amount",
          "type": "uint256"
        }
      ],
      "name": "transferFrom",
      "outputs": [
        {
          "internalType": "bool",
          "name": "",
          "type": "bool"
        }
      ],
      "stateMutability": "nonpayable",
      "type": "function"
    }
  ],
  "bytecode": {
    "object": "0x60806040523480156200001157600080fd5b506040518060400160405280600b81526020016a2234b9ba3934b13aba37b960a91b815250604051806040016040528060038152602001621114d560ea1b815250816003908162000063919062000120565b50600462000072828262000120565b505050620001ec565b634e487b7160e01b600052604160045260246000fd5b600181811c90821680620000a657607f821691505b602082108103620000c757634e487b7160e01b600052602260045260246000fd5b50919050565b601f8211156200011b57600081815260208120601f850160051c81016020861015620000f65750805b601f850160051c820191505b81811015620001175782815560010162000102565b5050505b505050565b81516001600160401b038111156200013c576200013c6200007b565b62000154816200014d845462000091565b84620000cd565b602080601f8311600181146200018c5760008415620001735750858301515b600019600386901b1c1916600185901b17855562000117565b600085815260208120601f198616915b82811015620001bd578886015182559484019460019091019084016200019c565b5085821015620001dc5787850151600019600388901b60f8161c191681555b5050505050600190811b01905550565b6111b580620001fc6000396000f3fe608060405234801561001057600080fd5b50600436106100f55760003560e01c806370a0823111610097578063a7f9219911610066578063a7f92199146101fe578063a9059cbb14610207578063dd62ed3e1461021a578063f623265b1461022d57600080fd5b806370a082311461019757806373b2e80e146101c057806395d89b41146101e3578063a457c2d7146101eb57600080fd5b806323b872dd116100d357806323b872dd1461014d5780632a48ff7f14610160578063313ce56714610175578063395093511461018457600080fd5b806306fdde03146100fa578063095ea7b31461011857806318160ddd1461013b575b600080fd5b610102610260565b60405161010f9190610adb565b60405180910390f35b61012b610126366004610b45565b6102f2565b604051901515815260200161010f565b6002545b60405190815260200161010f565b61012b61015b366004610b6f565b61030c565b61017361016e366004610bab565b610330565b005b6040516012815260200161010f565b61012b610192366004610b45565b6103a8565b61013f6101a5366004610bed565b6001600160a01b031660009081526020819052604090205490565b61012b6101ce366004610bed565b60056020526000908152604090205460ff1681565b6101026103ca565b61012b6101f9366004610b45565b6103d9565b61013f61138881565b61012b610215366004610b45565b610459565b61013f610228366004610c08565b610467565b610248734fb202140c5319106f15706b1a69e441c953630681565b6040516001600160a01b03909116815260200161010f565b60606003805461026f90610c3b565b80601f016020809104026020016040519081016040528092919081815260200182805461029b90610c3b565b80156102e85780601f106102bd576101008083540402835291602001916102e8565b820191906000526020600020905b8154815290600101906020018083116102cb57829003601f168201915b5050505050905090565b600033610300818585610492565b60019150505b92915050565b60003361031a8582856105b6565b610325858585610630565b506001949350505050565b3360009081526005602052604090205460ff161561036157604051635f1e377d60e01b815260040160405180910390fd5b61036a816107d4565b336000818152600560205260409020805460ff191660011790556103a5906103946012600a610d6f565b6103a090611388610d7e565b610a1c565b50565b6000336103008185856103bb8383610467565b6103c59190610d95565b610492565b60606004805461026f90610c3b565b600033816103e78286610467565b90508381101561044c5760405162461bcd60e51b815260206004820152602560248201527f45524332303a2064656372656173656420616c6c6f77616e63652062656c6f77604482015264207a65726f60d81b60648201526084015b60405180910390fd5b6103258286868403610492565b600033610300818585610630565b6001600160a01b03918216600090815260016020908152604080832093909416825291909152205490565b6001600160a01b0383166104f45760405162461bcd60e51b8152602060048201526024808201527f45524332303a20617070726f76652066726f6d20746865207a65726f206164646044820152637265737360e01b6064820152608401610443565b6001600160a01b0382166105555760405162461bcd60e51b815260206004820152602260248201527f45524332303a20617070726f766520746f20746865207a65726f206164647265604482015261737360f01b6064820152608401610443565b6001600160a01b0383811660008181526001602090815260408083209487168084529482529182902085905590518481527f8c5be1e5ebec7d5bd14f71427d1e84f3dd0314c0f7b2291e5b200ac8c7c3b925910160405180910390a3505050565b60006105c28484610467565b9050600019811461062a578181101561061d5760405162461bcd60e51b815260206004820152601d60248201527f45524332303a20696e73756666696369656e7420616c6c6f77616e63650000006044820152606401610443565b61062a8484848403610492565b50505050565b6001600160a01b0383166106945760405162461bcd60e51b815260206004820152602560248201527f45524332303a207472616e736665722066726f6d20746865207a65726f206164604482015264647265737360d81b6064820152608401610443565b6001600160a01b0382166106f65760405162461bcd60e51b815260206004820152602360248201527f45524332303a207472616e7366657220746f20746865207a65726f206164647260448201526265737360e81b6064820152608401610443565b6001600160a01b0383166000908152602081905260409020548181101561076e5760405162461bcd60e51b815260206004820152602660248201527f45524332303a207472616e7366657220616d6f756e7420657863656564732062604482015265616c616e636560d01b6064820152608401610443565b6001600160a01b03848116600081815260208181526040808320878703905593871680835291849020805487019055925185815290927fddf252ad1be2c89b69c2b068fc378daa952ba7f163c4a11628f55a4df523b3ef910160405180910390a361062a565b734fb202140c5319106f15706b1a69e441c9536306600081636439e9d484356020860135604087013561080a6060890189610da8565b61081760808b018b610df9565b61082460a08d018d610e43565b6040518a63ffffffff1660e01b815260040161084899989796959493929190611041565b602060405180830381865afa158015610865573d6000803e3d6000fd5b505050506040513d601f19601f8201168201806040525081019061088991906110fe565b9050806108a957604051636728b69360e11b815260040160405180910390fd5b60006108b86080850185610df9565b915050600181146108dc57604051633cbac2d960e11b815260040160405180910390fd5b60006108eb6080860186610df9565b60008181106108fc576108fc611120565b6109139260206101a0909202019081019150611136565b63ffffffff169050600061092a6080870187610df9565b600081811061093b5761093b611120565b90506101a0020160400160208101906109549190611151565b67ffffffffffffffff169050600061096f6080880188610df9565b600081811061098057610980611120565b90506101a0020160200160208101906109999190610bed565b905043600183146109bd5760405163612ad98160e11b815260040160405180910390fd5b6001600160a01b03821633146109e657604051635e9644c160e11b815260040160405180910390fd5b836109f36113888361116c565b1015610a1257604051639a92d45b60e01b815260040160405180910390fd5b5050505050505050565b6001600160a01b038216610a725760405162461bcd60e51b815260206004820152601f60248201527f45524332303a206d696e7420746f20746865207a65726f2061646472657373006044820152606401610443565b8060026000828254610a849190610d95565b90915550506001600160a01b038216600081815260208181526040808320805486019055518481527fddf252ad1be2c89b69c2b068fc378daa952ba7f163c4a11628f55a4df523b3ef910160405180910390a35050565b600060208083528351808285015260005b81811015610b0857858101830151858201604001528201610aec565b506000604082860101526040601f19601f8301168501019250505092915050565b80356001600160a01b0381168114610b4057600080fd5b919050565b60008060408385031215610b5857600080fd5b610b6183610b29565b946020939093013593505050565b600080600060608486031215610b8457600080fd5b610b8d84610b29565b9250610b9b60208501610b29565b9150604084013590509250925092565b600060208284031215610bbd57600080fd5b813567ffffffffffffffff811115610bd457600080fd5b820160c08185031215610be657600080fd5b9392505050565b600060208284031215610bff57600080fd5b610be682610b29565b60008060408385031215610c1b57600080fd5b610c2483610b29565b9150610c3260208401610b29565b90509250929050565b600181811c90821680610c4f57607f821691505b602082108103610c6f57634e487b7160e01b600052602260045260246000fd5b50919050565b634e487b7160e01b600052601160045260246000fd5b600181815b80851115610cc6578160001904821115610cac57610cac610c75565b80851615610cb957918102915b93841c9390800290610c90565b509250929050565b600082610cdd57506001610306565b81610cea57506000610306565b8160018114610d005760028114610d0a57610d26565b6001915050610306565b60ff841115610d1b57610d1b610c75565b50506001821b610306565b5060208310610133831016604e8410600b8410161715610d49575081810a610306565b610d538383610c8b565b8060001904821115610d6757610d67610c75565b029392505050565b6000610be660ff841683610cce565b808202811582820484141761030657610306610c75565b8082018082111561030657610306610c75565b6000808335601e19843603018112610dbf57600080fd5b83018035915067ffffffffffffffff821115610dda57600080fd5b602001915061012081023603821315610df257600080fd5b9250929050565b6000808335601e19843603018112610e1057600080fd5b83018035915067ffffffffffffffff821115610e2b57600080fd5b60200191506101a081023603821315610df257600080fd5b6000808335601e19843603018112610e5a57600080fd5b83018035915067ffffffffffffffff821115610e7557600080fd5b602001915061016081023603821315610df257600080fd5b803563ffffffff81168114610b4057600080fd5b60c08183375050565b803567ffffffffffffffff81168114610b4057600080fd5b818352600060208085019450826000805b86811015610fa05763ffffffff610ee984610e8d565b1688526001600160a01b03610eff848601610b29565b1684890152604067ffffffffffffffff610f1a828601610eaa565b16908901526060838101356bffffffffffffffffffffffff81168114610f3e578384fd5b6bffffffffffffffffffffffff16908901526080838101359089015260a0808401359089015260c0610f71818501610e8d565b63ffffffff169089015260e0610f8b818a01858301610ea1565b506101a0978801979290920191600101610ed3565b50959695505050505050565b8183526000602080850194508260005b858110156110365763ffffffff80610fd384610e8d565b1688526001600160a01b03610fe9848601610b29565b16888501526040838101359089015260608084013590890152608081611010828601610e8d565b16908901525060a060c0838201828a013750610160968701969190910190600101610fbc565b509495945050505050565b600060c08083018c845260208c8186015260408c8187015260608481880152838c855260e0880190508d945060005b8d8110156110c05763ffffffff8061108788610e8d565b16835285870135868401528061109e868901610e8d565b1685840152508683870184840137610120958601959190910190600101611070565b5087810360808901526110d4818c8e610ec2565b9550505050505082810360a08401526110ee818587610fac565b9c9b505050505050505050505050565b60006020828403121561111057600080fd5b81518015158114610be657600080fd5b634e487b7160e01b600052603260045260246000fd5b60006020828403121561114857600080fd5b610be682610e8d565b60006020828403121561116357600080fd5b610be682610eaa565b8181038181111561030657610306610c7556fea264697066735822122048d833f6c549cc56b0924c5f540e7bf614cf455d54347f2fa98a4fed97ad114a64736f6c63430008130033",
    "linkReferences": {}
  },
  "methodIdentifiers": {
    "ACCOUNT_AGE_THRESHOLD()": "a7f92199",
    "AXIOM_V1_QUERY_GOERLI_ADDR()": "f623265b",
    "allowance(address,address)": "dd62ed3e",
    "approve(address,uint256)": "095ea7b3",
    "balanceOf(address)": "70a08231",
    "claimTokens((bytes32,bytes32,bytes32,(uint32,bytes32,uint32,bytes32[6])[],(uint32,address,uint64,uint96,bytes32,bytes32,uint32,bytes32[6])[],(uint32,address,uint256,uint256,uint32,bytes32[6])[]))": "2a48ff7f",
    "decimals()": "313ce567",
    "decreaseAllowance(address,uint256)": "a457c2d7",
    "hasClaimed(address)": "73b2e80e",
    "increaseAllowance(address,uint256)": "39509351",
    "name()": "06fdde03",
    "symbol()": "95d89b41",
    "totalSupply()": "18160ddd",
    "transfer(address,uint256)": "a9059cbb",
    "transferFrom(address,address,uint256)": "23b872dd"
  },
  "id": 24
}